{
  "contractName": "Pemilu",
  "abi": [
    {
      "constant": true,
      "inputs": [
        {
          "name": "",
          "type": "uint256"
        }
      ],
      "name": "kandidat",
      "outputs": [
        {
          "name": "id",
          "type": "uint256"
        },
        {
          "name": "nama",
          "type": "string"
        },
        {
          "name": "jmlVote",
          "type": "uint256"
        }
      ],
      "payable": false,
      "stateMutability": "view",
      "type": "function"
    },
    {
      "constant": true,
      "inputs": [],
      "name": "pointKandidat",
      "outputs": [
        {
          "name": "",
          "type": "uint256"
        }
      ],
      "payable": false,
      "stateMutability": "view",
      "type": "function"
    },
    {
      "constant": true,
      "inputs": [
        {
          "name": "",
          "type": "address"
        }
      ],
      "name": "pemilih",
      "outputs": [
        {
          "name": "",
          "type": "bool"
        }
      ],
      "payable": false,
      "stateMutability": "view",
      "type": "function"
    },
    {
      "inputs": [],
      "payable": false,
      "stateMutability": "nonpayable",
      "type": "constructor"
    },
    {
      "anonymous": false,
      "inputs": [
        {
          "indexed": true,
          "name": "_kandidatId",
          "type": "uint256"
        }
      ],
      "name": "votedEvent",
      "type": "event"
    },
    {
      "constant": false,
      "inputs": [
        {
          "name": "_KandidatId",
          "type": "uint256"
        }
      ],
      "name": "vote",
      "outputs": [],
      "payable": false,
      "stateMutability": "nonpayable",
      "type": "function"
    }
  ],
  "bytecode": "0x608060405234801561001057600080fd5b5061005e6040805190810160405280600a81526020017f4b616e64696461742031000000000000000000000000000000000000000000008152506100b0640100000000026401000000009004565b6100ab6040805190810160405280600a81526020017f4b616e64696461742032000000000000000000000000000000000000000000008152506100b0640100000000026401000000009004565b6101d2565b6002600081548092919060010191905055506060604051908101604052806002548152602001828152602001600081525060016000600254815260200190815260200160002060008201518160000155602082015181600101908051906020019061011c92919061012d565b506040820151816002015590505050565b828054600181600116156101000203166002900490600052602060002090601f016020900481019282601f1061016e57805160ff191683800117855561019c565b8280016001018555821561019c579182015b8281111561019b578251825591602001919060010190610180565b5b5090506101a991906101ad565b5090565b6101cf91905b808211156101cb5760008160009055506001016101b3565b5090565b90565b610404806101e16000396000f300608060405260043610610062576000357c0100000000000000000000000000000000000000000000000000000000900463ffffffff1680630121b93f14610067578063657c3ef1146100945780638312a26c14610148578063b96afc1814610173575b600080fd5b34801561007357600080fd5b50610092600480360381019080803590602001909291905050506101ce565b005b3480156100a057600080fd5b506100bf600480360381019080803590602001909291905050506102f0565b6040518084815260200180602001838152602001828103825284818151815260200191508051906020019080838360005b8381101561010b5780820151818401526020810190506100f0565b50505050905090810190601f1680156101385780820380516001836020036101000a031916815260200191505b5094505050505060405180910390f35b34801561015457600080fd5b5061015d6103b2565b6040518082815260200191505060405180910390f35b34801561017f57600080fd5b506101b4600480360381019080803573ffffffffffffffffffffffffffffffffffffffff1690602001909291905050506103b8565b604051808215151515815260200191505060405180910390f35b6000803373ffffffffffffffffffffffffffffffffffffffff1673ffffffffffffffffffffffffffffffffffffffff16815260200190815260200160002060009054906101000a900460ff1615151561022657600080fd5b60008111801561023857506002548111155b151561024357600080fd5b60016000803373ffffffffffffffffffffffffffffffffffffffff1673ffffffffffffffffffffffffffffffffffffffff16815260200190815260200160002060006101000a81548160ff0219169083151502179055506001600082815260200190815260200160002060020160008154809291906001019190505550807ffff3c900d938d21d0990d786e819f29b8d05c1ef587b462b939609625b684b1660405160405180910390a250565b6001602052806000526040600020600091509050806000015490806001018054600181600116156101000203166002900480601f0160208091040260200160405190810160405280929190818152602001828054600181600116156101000203166002900480156103a25780601f10610377576101008083540402835291602001916103a2565b820191906000526020600020905b81548152906001019060200180831161038557829003601f168201915b5050505050908060020154905083565b60025481565b60006020528060005260406000206000915054906101000a900460ff16815600a165627a7a72305820b252370cbcfb4636713cf81a2a28e80f5390ddc27106275f368a4724d115bf660029",
  "source": "pragma solidity ^0.4.25;\n\ncontract Pemilu {\n    // Membuat model Kandidat\n    struct Kandidat {\n        uint id;\n        string nama;\n        uint jmlVote;\n    }\n\n    // Store accounts that have voted\n    mapping(address => bool) public pemilih;\n    // Store kandidat\n    // Fetch Kandidat\n    mapping(uint => Kandidat) public kandidat;\n    // Store kandidat Count\n    uint public pointKandidat;\n\n    // voted event\n    event votedEvent (\n        uint indexed _kandidatId\n    );\n\n    constructor () public\n    {\n        tambahKandidat(\"Kandidat 1\");\n        tambahKandidat(\"Kandidat 2\");\n    }\n\n    function tambahKandidat (string _nama) private\n    {\n        pointKandidat ++;\n        kandidat[pointKandidat] = Kandidat(pointKandidat, _nama, 0);\n    }\n\n    function vote (uint _KandidatId) public {\n        // require that they haven't voted before\n        require(!pemilih[msg.sender]);\n\n        // require a valid Kandidat\n        require(_KandidatId > 0 && _KandidatId <= pointKandidat);\n\n        // record that voter has voted\n        pemilih[msg.sender] = true;\n\n        // update Kandidat vote Count\n        kandidat[_KandidatId].jmlVote ++;\n\n        // trigger voted event\n        emit votedEvent(_KandidatId);\n    }\n}\n",
  "sourcePath": "/home/arsontomanta/election/contracts/Pemilu.sol",
  "compiler": {
    "name": "solc",
    "version": "0.4.26+commit.4563c3fc.Emscripten.clang"
  },
  "schemaVersion": "2.0.3",
  "updatedAt": "2021-05-24T14:09:04.574Z"
}